{
    "_format": "hh-sol-artifact-1",
    "contractName": "LambBedrockAuthentication",
    "sourceName": "contracts/Authenticator/Authenticator.sol",
    "abi": [
        {
            "inputs": [
                {
                    "internalType": "bool",
                    "name": "isMain",
                    "type": "bool"
                }
            ],
            "stateMutability": "nonpayable",
            "type": "constructor"
        },
        {
            "anonymous": false,
            "inputs": [
                {
                    "indexed": true,
                    "internalType": "uint256",
                    "name": "countLive",
                    "type": "uint256"
                }
            ],
            "name": "AddedPublicKeyHashes",
            "type": "event"
        },
        {
            "anonymous": false,
            "inputs": [
                {
                    "indexed": false,
                    "internalType": "uint8",
                    "name": "version",
                    "type": "uint8"
                }
            ],
            "name": "Initialized",
            "type": "event"
        },
        {
            "anonymous": false,
            "inputs": [
                {
                    "indexed": true,
                    "internalType": "uint256",
                    "name": "countLive",
                    "type": "uint256"
                }
            ],
            "name": "RemovedPublicKeyHashes",
            "type": "event"
        },
        {
            "inputs": [
                {
                    "internalType": "bytes32[]",
                    "name": "publicKeyHashesToAdd",
                    "type": "bytes32[]"
                },
                {
                    "internalType": "bytes32[2][256]",
                    "name": "publicKey",
                    "type": "bytes32[2][256]"
                },
                {
                    "internalType": "bytes[256]",
                    "name": "signature",
                    "type": "bytes[256]"
                }
            ],
            "name": "addPublicKeyHashes",
            "outputs": [],
            "stateMutability": "payable",
            "type": "function"
        },
        {
            "inputs": [
                {
                    "internalType": "address[]",
                    "name": "callers",
                    "type": "address[]"
                },
                {
                    "internalType": "bytes32[2][256]",
                    "name": "publicKey",
                    "type": "bytes32[2][256]"
                },
                {
                    "internalType": "bytes[256]",
                    "name": "signature",
                    "type": "bytes[256]"
                }
            ],
            "name": "approveCallers",
            "outputs": [],
            "stateMutability": "nonpayable",
            "type": "function"
        },
        {
            "inputs": [
                {
                    "internalType": "bytes32",
                    "name": "message",
                    "type": "bytes32"
                },
                {
                    "internalType": "bytes32[2][256]",
                    "name": "publicKey",
                    "type": "bytes32[2][256]"
                },
                {
                    "internalType": "bytes[256]",
                    "name": "signature",
                    "type": "bytes[256]"
                }
            ],
            "name": "endorseMessage",
            "outputs": [],
            "stateMutability": "nonpayable",
            "type": "function"
        },
        {
            "inputs": [
                {
                    "internalType": "bytes32",
                    "name": "",
                    "type": "bytes32"
                }
            ],
            "name": "endorsedMessages",
            "outputs": [
                {
                    "internalType": "bool",
                    "name": "",
                    "type": "bool"
                }
            ],
            "stateMutability": "view",
            "type": "function"
        },
        {
            "inputs": [],
            "name": "getKeyAdditionFee",
            "outputs": [
                {
                    "internalType": "uint256",
                    "name": "",
                    "type": "uint256"
                }
            ],
            "stateMutability": "view",
            "type": "function"
        },
        {
            "inputs": [],
            "name": "getKeyFeeBeacon",
            "outputs": [
                {
                    "internalType": "address",
                    "name": "",
                    "type": "address"
                }
            ],
            "stateMutability": "view",
            "type": "function"
        },
        {
            "inputs": [],
            "name": "getProfitAddress",
            "outputs": [
                {
                    "internalType": "address",
                    "name": "",
                    "type": "address"
                }
            ],
            "stateMutability": "view",
            "type": "function"
        },
        {
            "inputs": [
                {
                    "internalType": "bytes32[]",
                    "name": "firstLamportKeys",
                    "type": "bytes32[]"
                },
                {
                    "internalType": "address[]",
                    "name": "callers",
                    "type": "address[]"
                },
                {
                    "internalType": "contract IKeyFeeBeacon",
                    "name": "keyFeeBeacon",
                    "type": "address"
                }
            ],
            "name": "initialize",
            "outputs": [],
            "stateMutability": "nonpayable",
            "type": "function"
        },
        {
            "inputs": [
                {
                    "internalType": "address",
                    "name": "caller",
                    "type": "address"
                }
            ],
            "name": "isApprovedCaller",
            "outputs": [
                {
                    "internalType": "bool",
                    "name": "",
                    "type": "bool"
                }
            ],
            "stateMutability": "view",
            "type": "function"
        },
        {
            "inputs": [
                {
                    "internalType": "bytes32",
                    "name": "publicKeyHash",
                    "type": "bytes32"
                }
            ],
            "name": "isRedeemable",
            "outputs": [
                {
                    "internalType": "bool",
                    "name": "",
                    "type": "bool"
                }
            ],
            "stateMutability": "view",
            "type": "function"
        },
        {
            "inputs": [
                {
                    "internalType": "bytes32",
                    "name": "hash",
                    "type": "bytes32"
                },
                {
                    "internalType": "bytes",
                    "name": "missing",
                    "type": "bytes"
                }
            ],
            "name": "isValidSignature",
            "outputs": [
                {
                    "internalType": "bytes4",
                    "name": "",
                    "type": "bytes4"
                }
            ],
            "stateMutability": "view",
            "type": "function"
        },
        {
            "inputs": [],
            "name": "liveKeyCount",
            "outputs": [
                {
                    "internalType": "uint256",
                    "name": "",
                    "type": "uint256"
                }
            ],
            "stateMutability": "view",
            "type": "function"
        },
        {
            "inputs": [
                {
                    "internalType": "bytes32[]",
                    "name": "publicKeyHashesToRemove",
                    "type": "bytes32[]"
                },
                {
                    "internalType": "bytes32[2][256]",
                    "name": "publicKey",
                    "type": "bytes32[2][256]"
                },
                {
                    "internalType": "bytes[256]",
                    "name": "signature",
                    "type": "bytes[256]"
                }
            ],
            "name": "removePublicKeyHashes",
            "outputs": [],
            "stateMutability": "nonpayable",
            "type": "function"
        },
        {
            "inputs": [
                {
                    "internalType": "address[]",
                    "name": "callers",
                    "type": "address[]"
                },
                {
                    "internalType": "bytes32[2][256]",
                    "name": "publicKey",
                    "type": "bytes32[2][256]"
                },
                {
                    "internalType": "bytes[256]",
                    "name": "signature",
                    "type": "bytes[256]"
                }
            ],
            "name": "unapproveCallers",
            "outputs": [],
            "stateMutability": "nonpayable",
            "type": "function"
        },
        {
            "inputs": [
                {
                    "internalType": "uint256",
                    "name": "bits",
                    "type": "uint256"
                },
                {
                    "internalType": "bytes[256]",
                    "name": "sig",
                    "type": "bytes[256]"
                },
                {
                    "internalType": "bytes32[2][256]",
                    "name": "pub",
                    "type": "bytes32[2][256]"
                }
            ],
            "name": "verify_u256",
            "outputs": [
                {
                    "internalType": "bool",
                    "name": "",
                    "type": "bool"
                }
            ],
            "stateMutability": "pure",
            "type": "function"
        }
    ],
    "bytecode": "0x60806040523480156200001157600080fd5b506040516200196e3803806200196e83398101604081905262000034916200010d565b80156200004557620000456200004c565b5062000138565b600454610100900460ff1615620000b95760405162461bcd60e51b815260206004820152602760248201527f496e697469616c697a61626c653a20636f6e747261637420697320696e697469604482015266616c697a696e6760c81b606482015260840160405180910390fd5b60045460ff908116146200010b576004805460ff191660ff9081179091556040519081527f7f26b83ff96e1f2b6a682f133852f6798a09c465da95921460cefb38474024989060200160405180910390a15b565b6000602082840312156200012057600080fd5b815180151581146200013157600080fd5b9392505050565b61182680620001486000396000f3fe6080604052600436106100e85760003560e01c8063913091181161008a578063d5964e4d11610059578063d5964e4d14610286578063d69d0eea146102a6578063d770943e146102c6578063fb895820146102e457600080fd5b80639130911814610204578063af82f3e714610224578063bad6237314610244578063d455bbee1461025957600080fd5b8063227ca88d116100c6578063227ca88d1461018d578063341a3860146101ad57806346f5b4ad146101c05780634e28601c146101e057600080fd5b806311e25162146100ed5780631626ba7e1461010f57806317499cfb1461014d575b600080fd5b3480156100f957600080fd5b5061010d610108366004611156565b610304565b005b34801561011b57600080fd5b5061012f61012a36600461121d565b610466565b6040516001600160e01b031990911681526020015b60405180910390f35b34801561015957600080fd5b5061017d6101683660046112bc565b60056020526000908152604090205460ff1681565b6040519015158152602001610144565b34801561019957600080fd5b5061010d6101a83660046112d5565b61049c565b61010d6101bb3660046113af565b6105d6565b3480156101cc57600080fd5b5061010d6101db3660046113af565b61076c565b3480156101ec57600080fd5b506101f660035481565b604051908152602001610144565b34801561021057600080fd5b5061017d61021f366004611434565b61087f565b34801561023057600080fd5b5061017d61023f366004611451565b61089d565b34801561025057600080fd5b506101f661093e565b34801561026557600080fd5b5061026e6109cf565b6040516001600160a01b039091168152602001610144565b34801561029257600080fd5b5061010d6102a13660046114aa565b610a5b565b3480156102b257600080fd5b5061017d6102c13660046112bc565b610bfe565b3480156102d257600080fd5b506000546001600160a01b031661026e565b3480156102f057600080fd5b5061010d6102ff366004611156565b610c2e565b81818585604051602001610319929190611567565b6040516020818303038152906040526103313361087f565b6103565760405162461bcd60e51b815260040161034d90611589565b60405180910390fd5b6000600354116103785760405162461bcd60e51b815260040161034d906115a8565b60008360405160200161038b91906115c7565b6040516020818303038152906040528051906020012090506103ac81610bfe565b6103c85760405162461bcd60e51b815260040161034d906115fe565b815160208301206103da90848661089d565b6103f65760405162461bcd60e51b815260040161034d9061161d565b6103ff81610d9e565b6003546040516000805160206117d183398151915290600090a260005b8781101561045b576104538989838181106104395761043961163c565b905060200201602081019061044e9190611434565b610e2c565b60010161041c565b505050505050505050565b60008281526005602052604081205460ff161561048b5750630b135d3f60e11b610496565b506001600160e01b03195b92915050565b8181846040516020016104be91815263227ca88d60e01b602082015260240190565b6040516020818303038152906040526104d63361087f565b6104f25760405162461bcd60e51b815260040161034d90611589565b6000600354116105145760405162461bcd60e51b815260040161034d906115a8565b60008360405160200161052791906115c7565b60405160208183030381529060405280519060200120905061054881610bfe565b6105645760405162461bcd60e51b815260040161034d906115fe565b8151602083012061057690848661089d565b6105925760405162461bcd60e51b815260040161034d9061161d565b61059b81610d9e565b6003546040516000805160206117d183398151915290600090a25050506000938452505060056020525060409020805460ff19166001179055565b8181846040516020016105e99190611685565b6040516020818303038152906040526106013361087f565b61061d5760405162461bcd60e51b815260040161034d90611589565b60006003541161063f5760405162461bcd60e51b815260040161034d906115a8565b60008360405160200161065291906115c7565b60405160208183030381529060405280519060200120905061067381610bfe565b61068f5760405162461bcd60e51b815260040161034d906115fe565b815160208301206106a190848661089d565b6106bd5760405162461bcd60e51b815260040161034d9061161d565b6106c681610d9e565b6003546040516000805160206117d183398151915290600090a260006106ea61093e565b90508034146107245760405162461bcd60e51b81526020600482015260066024820152654c423a45313160d01b604482015260640161034d565b8060000361073b5761073588610e8d565b50610763565b61074488610e8d565b600061074e6109cf565b905061045b6001600160a01b03821683610ef3565b50505050505050565b81818460405160200161077f91906116a5565b6040516020818303038152906040526107973361087f565b6107b35760405162461bcd60e51b815260040161034d90611589565b6000600354116107d55760405162461bcd60e51b815260040161034d906115a8565b6000836040516020016107e891906115c7565b60405160208183030381529060405280519060200120905061080981610bfe565b6108255760405162461bcd60e51b815260040161034d906115fe565b8151602083012061083790848661089d565b6108535760405162461bcd60e51b815260040161034d9061161d565b61085c81610d9e565b6003546040516000805160206117d183398151915290600090a261076387611011565b6001600160a01b031660009081526001602052604090205460ff1690565b6000805b61010081101561093157838161010081106108be576108be61163c565b6020028101906108ce91906116c5565b6040516108dc92919061170c565b6040518091039020838261010081106108f7576108f761163c565b604002018260ff0387901c600116600281106109155761091561163c565b602002013514610929576000915050610937565b6001016108a1565b50600190505b9392505050565b600080546001600160a01b03166109555750600090565b60008054906101000a90046001600160a01b03166001600160a01b031663bad623736040518163ffffffff1660e01b8152600401602060405180830381865afa1580156109a6573d6000803e3d6000fd5b505050506040513d601f19601f820116820180604052508101906109ca919061171c565b905090565b600080546001600160a01b03166109e65750600090565b60008054906101000a90046001600160a01b03166001600160a01b031663d455bbee6040518163ffffffff1660e01b8152600401602060405180830381865afa158015610a37573d6000803e3d6000fd5b505050506040513d601f19601f820116820180604052508101906109ca9190611735565b600454610100900460ff1615808015610a7b5750600454600160ff909116105b80610a955750303b158015610a95575060045460ff166001145b610af85760405162461bcd60e51b815260206004820152602e60248201527f496e697469616c697a61626c653a20636f6e747261637420697320616c72656160448201526d191e481a5b9a5d1a585b1a5e995960921b606482015260840161034d565b6004805460ff191660011790558015610b1b576004805461ff0019166101001790555b610b2485610e8d565b60005b83811015610b95576001806000878785818110610b4657610b4661163c565b9050602002016020810190610b5b9190611434565b6001600160a01b031681526020810191909152604001600020805460ff191691151591909117905580610b8d81611768565b915050610b27565b50600080546001600160a01b0319166001600160a01b0384161790558015610bf7576004805461ff0019169055604051600181527f7f26b83ff96e1f2b6a682f133852f6798a09c465da95921460cefb38474024989060200160405180910390a15b5050505050565b6000600160008381526002602081905260409091205460ff1690811115610c2757610c27611781565b1492915050565b81818585604051602001610c43929190611797565b604051602081830303815290604052610c5b3361087f565b610c775760405162461bcd60e51b815260040161034d90611589565b600060035411610c995760405162461bcd60e51b815260040161034d906115a8565b600083604051602001610cac91906115c7565b604051602081830303815290604052805190602001209050610ccd81610bfe565b610ce95760405162461bcd60e51b815260040161034d906115fe565b81516020830120610cfb90848661089d565b610d175760405162461bcd60e51b815260040161034d9061161d565b610d2081610d9e565b6003546040516000805160206117d183398151915290600090a260005b8781101561045b57610d96898983818110610d5a57610d5a61163c565b9050602002016020810190610d6f9190611434565b6001600160a01b03166000908152600160208190526040909120805460ff19169091179055565b600101610d3d565b600160008281526002602081905260409091205460ff1690811115610dc557610dc5611781565b14610dfb5760405162461bcd60e51b815260206004820152600660248201526526211d22989960d11b604482015260640161034d565b60008181526002602081905260408220805460ff191690911790556003805491610e24836117b9565b919050555050565b336001600160a01b03821603610e6c5760405162461bcd60e51b81526020600482015260056024820152644c423a453360d81b604482015260640161034d565b6001600160a01b03166000908152600160205260409020805460ff19169055565b60005b8151811015610ec357610ebb828281518110610eae57610eae61163c565b6020026020010151611065565b600101610e90565b506003546040517f89e318ed516a25dfc599105af71a8b9939ed1114a54ebf6b3b5d08c697fac2e290600090a250565b80471015610f435760405162461bcd60e51b815260206004820152601d60248201527f416464726573733a20696e73756666696369656e742062616c616e6365000000604482015260640161034d565b6000826001600160a01b03168260405160006040518083038185875af1925050503d8060008114610f90576040519150601f19603f3d011682016040523d82523d6000602084013e610f95565b606091505b505090508061100c5760405162461bcd60e51b815260206004820152603a60248201527f416464726573733a20756e61626c6520746f2073656e642076616c75652c207260448201527f6563697069656e74206d61792068617665207265766572746564000000000000606482015260840161034d565b505050565b60005b81518110156110475761103f8282815181106110325761103261163c565b6020026020010151610d9e565b600101611014565b506003546040516000805160206117d183398151915290600090a250565b600081815260026020819052604082205460ff169081111561108957611089611781565b146110bf5760405162461bcd60e51b815260206004820152600660248201526504c423a4531360d41b604482015260640161034d565b6000818152600260205260408120805460ff191660011790556003805491610e2483611768565b60008083601f8401126110f857600080fd5b50813567ffffffffffffffff81111561111057600080fd5b6020830191508360208260051b850101111561112b57600080fd5b9250929050565b80614000810183101561049657600080fd5b80612000810183101561049657600080fd5b600080600080614040858703121561116d57600080fd5b843567ffffffffffffffff8082111561118557600080fd5b611191888389016110e6565b90965094508491506111a68860208901611132565b93506140208701359150808211156111bd57600080fd5b506111ca87828801611144565b91505092959194509250565b634e487b7160e01b600052604160045260246000fd5b604051601f8201601f1916810167ffffffffffffffff81118282101715611215576112156111d6565b604052919050565b6000806040838503121561123057600080fd5b8235915060208084013567ffffffffffffffff8082111561125057600080fd5b818601915086601f83011261126457600080fd5b813581811115611276576112766111d6565b611288601f8201601f191685016111ec565b9150808252878482850101111561129e57600080fd5b80848401858401376000848284010152508093505050509250929050565b6000602082840312156112ce57600080fd5b5035919050565b600080600061404084860312156112eb57600080fd5b833592506112fc8560208601611132565b915061402084013567ffffffffffffffff81111561131957600080fd5b61132586828701611144565b9150509250925092565b600082601f83011261134057600080fd5b8135602067ffffffffffffffff82111561135c5761135c6111d6565b8160051b61136b8282016111ec565b928352848101820192828101908785111561138557600080fd5b83870192505b848310156113a45782358252918301919083019061138b565b979650505050505050565b600080600061404084860312156113c557600080fd5b833567ffffffffffffffff808211156113dd57600080fd5b6113e98783880161132f565b94506113f88760208801611132565b935061402086013591508082111561140f57600080fd5b5061132586828701611144565b6001600160a01b038116811461143157600080fd5b50565b60006020828403121561144657600080fd5b81356109378161141c565b6000806000614040848603121561146757600080fd5b83359250602084013567ffffffffffffffff81111561148557600080fd5b61149186828701611144565b9250506114a18560408601611132565b90509250925092565b600080600080606085870312156114c057600080fd5b843567ffffffffffffffff808211156114d857600080fd5b6114e48883890161132f565b955060208701359150808211156114fa57600080fd5b50611507878288016110e6565b909450925050604085013561151b8161141c565b939692955090935050565b60008160005b8481101561155d57813561153f8161141c565b6001600160a01b03168652602095860195919091019060010161152c565b5093949350505050565b6000611574828486611526565b6308f128b160e11b8152600401949350505050565b60208082526005908201526426211d229b60d91b604082015260600190565b6020808252600590820152644c423a453760d81b604082015260600190565b60008183825b6101008110156115ee576040808385379283019291909101906001016115cd565b5050506140008201905092915050565b60208082526005908201526409884748a760db1b604082015260600190565b6020808252600590820152644c423a453960d81b604082015260600190565b634e487b7160e01b600052603260045260246000fd5b60008151602080840160005b8381101561167a5781518752958201959082019060010161165e565b509495945050505050565b60006116918284611652565b6301a0d1c360e51b81526004019392505050565b60006116b18284611652565b6346f5b4ad60e01b81526004019392505050565b6000808335601e198436030181126116dc57600080fd5b83018035915067ffffffffffffffff8211156116f757600080fd5b60200191503681900382131561112b57600080fd5b8183823760009101908152919050565b60006020828403121561172e57600080fd5b5051919050565b60006020828403121561174757600080fd5b81516109378161141c565b634e487b7160e01b600052601160045260246000fd5b60006001820161177a5761177a611752565b5060010190565b634e487b7160e01b600052602160045260246000fd5b60006117a4828486611526565b6307dc4ac160e51b8152600401949350505050565b6000816117c8576117c8611752565b50600019019056fe70f2cfee27033ad601b5f57bab1c39f0ee4092526fe49d38faeee87900b734b5a2646970667358221220d6e5cc31ddb11b7d41baeec3132cc5795865581a146e762754712f28751d04ff64736f6c63430008120033",
    "linkReferences": {},
    "deployedLinkReferences": {}
}